:020000040800F2
:1000000020800120E50200081D8E0008F57D000813
:10001000198E00084D22000831DC000800000000A5
:10002000000000000000000000000000018F000838
:10003000F124000800000000918E0008418F0008A4
:10004000FF020008FF020008FF020008FF0200088C
:10005000FF020008FF020008FF020008FF0200087C
:10006000FF020008FF020008FF02000851220008FA
:1000700061220008712200088122000891220008F4
:10008000A1220008B1220008FF020008FF020008B8
:10009000FF020008FF020008FF020008FF0200083C
:1000A000FF020008FF020008FF020008FF0200082C
:1000B0003D90000899900008F5900008FF020008A4
:1000C000FF020008FF020008FF020008FF0200080C
:1000D000FF020008FF020008B59F0008C59F000846
:1000E000F5240008FF020008FF02000849920008FA
:1000F000CD920008BD920008FF020008C12200084E
:10010000FF020008FF02000851910008FF020008EA
:10011000FF020008699A0008FF020008AD9100087C
:10012000FF020008FF020008FF020008FF020008AB
:10013000FF020008FF020008FF020008FF0200089B
:10014000FF020008FF020008FF020008FF0200088B
:10015000FF020008FF020008FF020008E99F0008F4
:10016000FF020008FF020008FF020008FF0200086B
:10017000FF020008898E0008FF020008000000004E
:10018000FF020008FF02000800F002F800F09AF8F1
:100190000AA090E8000C82448344AAF10107DA45E2
:1001A00001D100F08FF8AFF2090EBAE80F0013F09A
:1001B000010F18BFFB1A43F0010318472446010042
:1001C00054460100103A24BF78C878C1FAD85207C3
:1001D00024BF30C830C144BF04680C6070470000C1
:1001E0000023002400250026103A28BF78C1FBD840
:1001F000520728BF30C148BF0B6070476E2900F01E
:100200004D82702900F08383662913F06887652981
:1002100013F06587672913F06287612913F06187FE
:1002200003681B0A28BF41F08001692900F0FA81A8
:10023000642900F0F781752900F0F4816F2900F03E
:100240001183782900F04F83E92900F0AB82E4297B
:1002500000F0A882F52900F0A582EF2900F00E83B6
:10026000F82900F04E830368DB0928BF41F08001C4
:10027000632901F0BB80732901F0C080E32901F0FC
:10028000CB80F32901F0D080002070471FB513F018
:1002900019FF9DE8030000F02DF901F0E9F90400D1
:1002A0000020002113F0F8FE401C606000200021B7
:1002B00013F0DCFEE06001F0BFF81FBD10B501F0E7
:1002C00024F910BD01F0A6F91146FFF7DFFF0EF08B
:1002D00053FC01F02FFC03B4FFF7F0FF03BC0DF05B
:1002E00099FD00000948804709480047FEE7FEE7FE
:1002F000FEE7FEE7FEE7FEE7FEE7FEE7FEE7FEE7D6
:1003000004480549054A064B704700001D90000847
:10031000890100082078012020800120207A012016
:10032000207A0120704770B5064600F0C7F80568CE
:1003300006F10B0020F00704B4429CBF002070BD02
:100340002B466A68BAB11068A04210D304F10801C4
:1003500088423CBF5068586007D35168101941600B
:100360001168091B016058601460101D70BD1346B0
:100370005268002AE7D12146284600F0A7F8002855
:10038000DED170BD70B50446051F00F097F8006817
:10039000002C14BF446870BD002C18BFAC423CBF99
:1003A00020466468F8D301680A18AA4218BF45605D
:1003B00003D12A6805461144016028684119A14209
:1003C0001CBF6C6070BD616869602168084428606A
:1003D00070BD00000FB4044910B503AA029800F0E4
:1003E00071F910BC5DF814FB6400002040EA0103C1
:1003F000024630B59B0710D14FF0013400E008C22F
:1004000008C91D1B9D4315EAC41FF8D013F0FF0156
:1004100002F8011B0DD01B0AF8E711F8013B002B75
:1004200002F8013B05D011F8013B002B02F8013B1B
:10043000F3D130BD0000000030B44FF0013C50F863
:10044000042B51F8043BCCFA52F4D51A20D1FCB954
:1004500050F8042B51F8043BCCFA52F4D51A17D1BA
:10046000B4B950F8042B51F8043BCCFA52F4D51A25
:100470000ED16CB950F8042B51F8043BCCFA52F46D
:10048000D51A05D1002CDAD030BC4FF000007047EF
:1004900029BAB1FA81F111F01801D1F1200084409C
:1004A000F2D1CA40CB4012F0FF0213F0FF0330BC80
:1004B000D01A7047704770477047704700487047C0
:1004C00014010020704770477047704738B50446E4
:1004D0000A4600206946AFF30080002808BF38BDF7
:1004E00002460099204600F01BFB012038BD012088
:1004F00001F062B8F8B5AFF30080054600200C4665
:10050000102000BF0646A819A0420DD93246694600
:100510000020AFF30080070008BF01F04DF80098FD
:10052000A04218BF0546C419FFF7C8FF056007467B
:10053000F01D20F007004619284600F00AF8B442E2
:1005400008BFF8BDA21B31463868BDE8F84000F08E
:10055000E7BA00210160C0E9011070471020704720
:1005600070B5044685690068C10601D5302600E0F3
:100570002026C00707D070BDD4E90121304690473E
:10058000206A401C20626D1EF6D570BD70B5044611
:1005900085690078C00707D170BDD4E9012120200A
:1005A0009047206A401C20626D1EF6D570BD096818
:1005B0004A0501D540B27047C905FCD500B2704765
:1005C00009684A0501D5C0B27047C905FCD580B29B
:1005D000704770B50C460546012A05D0287880067C
:1005E00000D5EA69002302E0012305E05B1C934289
:1005F00002D2E05C0028F9D1A869E618C01AA86107
:10060000286A184428622846FFF7AAFF04E0D5E9C3
:10061000012114F8010B9047B442F8D32846FFF7A4
:10062000B5FF70BD2DE9F04106460024106875291C
:10063000314616A510D0FFF7BAFF002802DA404273
:1006400013A507E031688A0701D512A502E0490722
:1006500004D511A5012401E0FFF7B2FF00210A2211
:1006600006F1240709E0B0FBF2FCB0FBF2F302FB59
:100670001C00303078541846491C0028F3D123461A
:100680002A463046BDE8F04100F0A9BA000000005B
:100690002D0000002B0000002000000011680268FF
:1006A000006A530501D508700AE0D30501D508801A
:1006B00006E0130603D5C217C1E9000200E0086096
:1006C00001207047074B70B50D467B4400F071FE6A
:1006D0000446284600F0ACFE10B14FF0FF3070BD6C
:1006E000204670BD853901002DE9FF5F15468A4619
:1006F0000446DFF8AC80F8440027D8E900103E46F5
:10070000CDE9001010E03AF816106A4602A800F091
:100710002FFF411C07D02178890603D5E2693918DB
:1007200091420DD80744761C2078800602D5E069F6
:10073000B84205DDAE42E6DB3AF816000028E2D109
:10074000A069C01BA0612046FFF70AFFD8E900108E
:10075000CDE90010002017E03AF818106A4602A808
:1007600000F006FFB0F1FF3F81460BD000250DF1F0
:10077000080B05E0D4E901211BF8050090476D1C2A
:100780004D45F7D308F10100B0428046E4DB206A12
:10079000384420622046FFF7F9FEBDE8FF9F0000C5
:1007A000EE3901002DE9F0418046D21D22F007020A
:1007B0000025D2E90002F52915A614D0011E72F118
:1007C000000106DA0023D0EB030063EB020211A65E
:1007D00008E0D8F800108B0701D50FA602E0490702
:1007E00001D50EA601251146002408F1240704E0D6
:1007F00000F0B0F930323A55641C50EA0102F7D1EA
:100800002B46324621464046BDE8F04100F0E7B9AC
:10081000000000002D0000002B0000002000000060
:1008200030B4002100F1240408E002F00705D208EA
:10083000303542EA4372DB086554491C52EA03052D
:10084000F3D10468002310A2250708D504F0200482
:100850000C4304D0C46901230CA2641EC46130BCE3
:1008600000F0BDB910B5044621461068FFF7A8FE98
:1008700002462046BDE810400023D1E7D21D22F0F9
:100880000701D1E90023CBE70000000030000000A1
:10089000F0B40D460188090502D5214C7C4402E0E4
:1008A0001F4C7C440E34002100F1240608E002F0C5
:1008B0000F071209E75D42EA03721B097754491CCE
:1008C00052EA0307F3D102780023120704D5702DF2
:1008D00006D009B1022311342246F0BC00F07FB9E2
:1008E00001231034F8E770B504460D462146106820
:1008F000FFF766FE024629462046BDE87040002309
:10090000C6E7D21D22F00703D3E90023C0E703683E
:10091000126843F0200303600823C3610023B7E794
:10092000503801002DE9F05F894604464FF0000A77
:10093000DFF874B1FB44C0F820A02046E168884786
:10094000002874D0252806D0D4E901219047206AD8
:10095000401C2062F1E700265F462046E168884798
:100960002028054607DB312D05D2781910F8200C18
:1009700008B10643F1E7B00701D526F00406C4F834
:100980001CA00027C4F818A02A2D09D0284613F06F
:1009900059FB38B304EB8708303DC8F8185019E00C
:1009A00059F8041B204604EB87029161E1688847EF
:1009B000012F054618D1E069002820DA26F020062C
:1009C0001DE0D8F8180000EB800005EB400030383F
:1009D000C8F818002046E1688847054613F032FB46
:1009E0000028EED1012F0AD02E2D08D12046E16833
:1009F00088477F1C0546022F46F02006C4DBA0690D
:100A0000002803DA404246F00106A061F00701D059
:100A100026F010066C2D0BD0682D09D04C2D39D046
:100A20006A2D35D0742D35D07A2D33D016E038E0CC
:100A3000E1682F4620468847B842054609D16C2F09
:100A400026D04FF48060E16806432046884705467B
:100A500004E06C2F1AD04FF4807006430DB3A5F15B
:100A60004100192802D8203546F400664A46294636
:100A7000204626604E46FFF7C1FB80B101280BD00F
:100A8000F61D26F0070000F1080956E74020E4E7CC
:100A90008020D8E70020D6E706F104094DE7284674
:100AA00052E7206ABDE8F09FE037010010B5203A18
:100AB000C0F00B80B1E81850A0E81850B1E8185009
:100AC000A0E81850203ABFF4F5AF5FEA027C24BFDB
:100AD000B1E81850A0E8185044BF18C918C0BDE8C4
:100AE00010405FEA827C24BF51F8043B40F8043B8D
:100AF00008BF7047D20728BF31F8023B48BF11F842
:100B0000012B28BF20F8023B48BF00F8012B70479B
:100B1000004870470C010020004870470C0100207D
:100B2000034640688C46002818BF88423CBF0346F5
:100B30004068F8D318681844884207D00CF10300C5
:100B400020F00700001D411A521A0146081D0A60D4
:100B5000FFF718BC30B5B0F10A0271F100034FEA9B
:100B6000900E4EEA817EB0EB0E0061EB91014FEAF0
:100B7000101E4EEA017E10EB0E0041EB11114FEA00
:100B8000102E4EEA016E10EB0E0041EB11214FEAE0
:100B9000104E4EEA014E10EB0E0041EB1141401891
:100BA00041F100014FEAD00040EA41704FEAD10123
:100BB0004FEA810444EA907410EB800544EB010491
:100BC0006D1944EB0404521BA3414FF0000348BFCE
:100BD0000A3200D530BD401C41F1000130BD2DE985
:100BE000F0470D4699469246044600F124080168F4
:100BF000880604D5E06921F01001216000E00120A1
:100C0000A84201DD471B00E00027A1697A1902EB29
:100C10000900081AA0612078C00602D42046FFF718
:100C20009FFC002608E0D4E901211AF8060090474D
:100C3000206A401C761C20624E45F4DB2078C006FA
:100C40000AD52046FFF78CFC06E0D4E901213020CC
:100C50009047206A401C2062381EA7F10107F4DC8F
:100C600007E0D4E9012118F805009047206A401CEC
:100C70002062281EA5F10105F3DC2046FFF786FC63
:100C80002078000602D50220BDE8F0870120FBE7AE
:100C90002DE9FF4F0C461E464FF0FF378BB0D2E9CF
:100CA0000001DDF860800A908A46C1F30A5505B953
:100CB0003D46002108464FF00000BAF1000F00F455
:100CC000400005DA00EB80004FF4400101EA5000DB
:100CD0004FEA9059B9F1010F00DDB9460A9850EA80
:100CE0004A000ED044F61050A5F2FF3545432F14AC
:100CF000B8F1000F1ED07542291E1EDDC9F1000299
:100D00001CE0B8F1010F4FF0000001D0302103E0EA
:100D1000F24305E02154401CB042FBDB3046002288
:100D2000002121540B99C1F80880C1E900200FB0BF
:100D3000BDE8F08FBD1B6D1CDEE74A4600DA694254
:100D400006A800F0D9FC06AB93E8070003AB83E8E4
:100D5000070050460A9912F095FD8DE80700A0F5AE
:100D600000501F3800900398002D0ADD42F21F0149
:100D70004A460844002303A90390684612F0FEFF88
:100D800009E0A0F500504A461F38002303A903904C
:100D9000684613F008F88DE807000004000C03D043
:100DA0004FF0FF30410800E01046B8F1000F03D0CB
:100DB0000022009215461EE0751E05D4FFF7CAFEFC
:100DC000303262556D1EF9D5B3460122084302D078
:100DD00000227F1C04E02078302801D100227F1EF1
:100DE000002A099784D01DE0112D07DAFFF7B2FE23
:100DF000303262556D1C50EA0102F5D1084302D031
:100E00000098C8B10EE00021681E05E0235C625C1A
:100E100063542254401E491C8142F7DBAB46A81B99
:100E2000401E0990002004F80B000B98099AC0F8A6
:100E30000880C0E9002B7AE711264FF0000857E739
:100E40002DE9F04F88460446D21D22F0070191B0EB
:100E5000D1E90001CDE90A0113F0DCF802460B9854
:100E6000C00F01D02D2007E02068810701D52B207D
:100E700002E0202101EAC000032A099001D0072ADC
:100E800005DB03464146204600F0F6FB0BE12078E7
:100E9000800601D5E06900E00620B8F1650F8146C3
:100EA00006D0B8F1660F18D0B8F1670F70D131E0F5
:100EB0000020B9F1110F009001DB112301E009F1CD
:100EC00001030AAA01A90CA8FFF7E2FEDDE90C70F4
:100ED000002609F10105834647E001204B460090BA
:100EE0004FF000470AAA01A90CA8FFF7D1FEDDE9DF
:100EF0000DB00C995D46002610B909F101000D18DE
:100F0000B9EB050003D4C0F1FF3609F10105A5EBEB
:100F100009002BE0B9F1010F01DA4FF001090020BF
:100F2000B9F1110F0090484601DD112300E003469E
:100F30000AAA01A90CA8FFF7ABFEDDE90C704D462B
:100F400000268346207800070AD4AB4500DA5D46C8
:100F500001A8012D04DD411911F8011C302907D029
:100F60004F4502DA17F1040F04DA012082460FE040
:100F70006D1EEEE7002F02DCED1B3E4403E0781C03
:100F8000A84200DD7D1CB81B00F1010A4FF00047AC
:100F90002078000703D4AA4501DB4FF0FF3A002177
:100FA000B7F1004F0DF143088DF8431024D0022013
:100FB0002B23002F01DA7F422D230A21021EA0F1EC
:100FC000010000DC5FB197FBF1FC97FBF1F201FB44
:100FD0001C7C17460CF1300C08F801CDEEE7A8F1A7
:100FE000010003702188090501D5452100E0652134
:100FF000A0F1010800F8011C09980FA9A1EB08074E
:10100000FF1D00B10120411901EBEA70A1693844CC
:10101000081A401EA0612078C00602D42046FFF7BF
:101020009FFA099828B1D4E901219047206A401C11
:1010300020622078C00622D52046FFF791FA1EE0F4
:10104000002E04DBB34502DD01A8805D00E0302006
:10105000D4E901219047206A401C2062761CAAF145
:1010600001005FEA000A0AD100F002FBC0680168D3
:10107000405CD4E901219047206A401C2062281E70
:10108000A5F10105DCDC07E0D4E9012118F8010B2A
:101090009047206A401C2062381EA7F10107F3DC4C
:1010A0002046FFF773FA032011B041E62DE9F04F17
:1010B00004460D46D21D22F0070089B0D0E9009702
:1010C0004846394612F0A6FF0246F80F01D02D23FC
:1010D00007E02068810701D52B2302E0202101EAE7
:1010E000C0038DF820300BB1012000E00020032A5E
:1010F000824601D0072A04DB2946204600F0BCFACC
:101100003FE12078800601D40D2500E0E569C7F3B2
:101110000A560D2D49DA00214FEA175B08464FF0B9
:101120000000002F00F4400007DA00EB80004FF4CD
:10113000400100EBD07001EA60008115012901DD5A
:101140004FF0FF3100224FEA850CBCF1180F06D397
:101150001346ACF118004FF08052C24003E04FF448
:10116000801323FA0CF30CF10C0CBCF1200F04D308
:10117000ACF1200C09FA0CF001E007FA0CF00029A0
:101180004FF0004801DD18B90FE00ED140450CD3F7
:1011900019EB02095F4121B9404502D19F4329EA79
:1011A0000209BBEB175F00D0761C2088000502D532
:1011B0007B48784402E07A487844193808AA3023FA
:1011C00002F80A30037C0AF10101002E0AF1020A3A
:1011D00053546A4602DC4FF0300101E04FF0310118
:1011E0004FF001088DF8001002D0A6F2FF3603E0A0
:1011F00059EA470100D06B4E002D02DC2178090727
:1012000004D54FF002082E218DF80110C4460021AC
:101210000BE0C7F303433F01C35C491C6D1E02F89A
:101220000830052908F1010801DA002DF1DC002160
:101230000CE000EB1973491C1B786D1E082902F89D
:1012400008304FEA091908F1010801DA002DF0DC35
:1012500021688B0602D516E0A8F10108E04505DDFE
:1012600002EB080313F8013C302BF5D0B8F1000F66
:1012700009DD02EB080313F8013C2E2B03D109070B
:1012800001D4A8F10108002D05DD3E2102F8081067
:101290006D1E08F10108407C002E02F8080008F1DC
:1012A000010804DA2D20764202F8080002E02B2023
:1012B00002F808000A214FF47A70864208F101080A
:1012C0000BDB96FBF0F3303302F8083096FBF0F3BB
:1012D00008F1010800FB136601E0642E0CDB6420BA
:1012E00096FBF0F3303302F8083096FBF0F308F188
:1012F000010800FB136601E00A2E06DB96FBF1F005
:10130000303002F8080008F1010896FBF1F001FB0B
:101310001060303002F80800A16908F1010808EBFC
:10132000050202EB0A00081AA0612078C00602D468
:101330002046FFF715F9216A08AE01EB0A0020628A
:1013400004E0D4E9012116F8010B9047BAF1010A33
:10135000F7D22078C00602D52046FFF701F96E4685
:1013600009E016F8010B3E280FD0D4E9012190477F
:10137000206A401C2062B8F10108F2D22046FFF733
:1013800005F909B00320BDE8F08F206A28442062E7
:1013900003E0D4E90121302090476D1EEBD3F8E73C
:1013A000862F010002FCFFFF01694A1C02610878D8
:1013B000704700B58FB0CDE9013100210591054995
:1013C0007944CDE9031011466846FFF7ABFA0FB038
:1013D00000BD0000E5FFFFFF10B5436913B1AFF397
:1013E000008001E0FFF7F5F8012010BD127800F150
:1013F00024010A7000224A700122EDE711684FF0C3
:10140000FF32E9E710B5436913B1AFF3008001E0A3
:10141000FFF76AF9012010BD128800F124018284CF
:101420000022C2840122EDE711684FF0FF32E9E7A4
:10143000007B00F08000704710B54248542100F056
:10144000C2F84148542100F0BEF84048542100F051
:10145000BAF83F493B483C4A3F4B08603D490A6067
:101460003A491960531C0365481C10650120086542
:101470003B48344A39A1784400F0BEFA20B93848D4
:1014800078440A3800F064FB37482F4A35A1784485
:1014900000F0B2FA20B9344878440A3800F058FB1A
:1014A00032482A4A2FA1784400F0A6FA20B92F48E2
:1014B00078440A3800F04CFB40232248DC0000212D
:1014C000224600F076FA20B125487844543800F0DE
:1014D0003FFB1D4822464023002100F06AFA20B15C
:1014E00021487844543800F033FB18482246102332
:1014F000002100F05EFA002806D01C487844BDE8C0
:101500001040563800F024BB10BD104870B5006D77
:1015100020F001040B4800F0E7FA0B4800F0E4FA71
:101520000A4800F0E1FA09E0206D20F001052046AC
:1015300000F0DAFA2046FEF725FF2C46002CF3D106
:1015400070BD00001000002064000020B8000020E2
:1015500000000020040000200800002072000000AD
:10156000CA30010077000000B9300100A930010045
:101570002DE9F04116460C46054600F071F8036867
:1015800093F80101012807D0FF2C12D8185D80B113
:1015900001202C70BDE8F081D3F8070132462146C6
:1015A00003F20713C7182846BC46BDE8F0410023E4
:1015B00060474FF0FF30EDE710B500F0D1FABDE81D
:1015C000104000F0C0BA4FF0000200B51346944638
:1015D0009646203922BFA0E80C50A0E80C50B1F18B
:1015E0002001BFF4F7AF090728BFA0E80C5048BF9F
:1015F0000CC05DF804EB890028BF40F8042B08BF3D
:10160000704748BF20F8022B11F0804F18BF00F838
:10161000012B70477546FFF77BFAAE460500694619
:10162000534620F00700854618B020B5FEF768FE47
:10163000BDE820404FF000064FF000074FF00008D3
:101640004FF0000BAC46ACE8C009ACE8C009ACE810
:10165000C009ACE8C00921F007018D4670470000C1
:1016600010B500F005F8001D10BD00BF2D2A0100C7
:10167000004870472C0100202DE9F0411F46044628
:1016800003260168072A01F4006004DB08B116A5EF
:1016900005E016A503E008B115A500E015A521F0A9
:1016A00010002060A069C01EA0610FB1401EA061A3
:1016B0002046FEF755FF4FB1D4E901213846904747
:1016C000206A401C2062C01C206206E0206AFAE703
:1016D000D4E9012115F8010B9047761EF8D2204677
:1016E000FEF754FFBDE8F0814E414E006E616E0082
:1016F000494E4600696E66002DE9F0478146164660
:101700008AB0354878440DC88DE80D0032487844D9
:10171000801C03AC0DC884E80D0041F69B300844E2
:10172000372190FBF1F290FBF1F5A5F1800501FB6B
:1017300012041B3C02D56442012000E00020DFF8C7
:1017400098A080460027FA44AAF1BE0A0EE0E007FE
:101750000AD03246684607EB470101230AEB8101B4
:1017600012F021FB8DE8070064107F1C002CEED1E5
:10177000194F7F44AE3F19E0E80715D007EB04107E
:101780000DF1180A90E80E008AE80E00C068F042D9
:1017900001D1981908903246012306A903A812F036
:1017A00002FB03AB83E807006D10641C002DE3D13E
:1017B0004FF0010332466946B8F1000F03A802D08A
:1017C00012F0DCFA01E012F0EEFAC9E90001C9F802
:1017D00008200AB0BDE8F087C42A01002DE9F047CF
:1017E00005460C46C86820F4201040F48000C8600C
:1017F000800602D5084600F0AEFAE06841F28201A8
:101800004FF0FF390140022903D0204600F04CFA86
:10181000B5E000F42041B1F5004F0FD1C00306D56B
:101820006168E06A884200D80846606006E0206986
:10183000E062606060690CF0F1FAA061A0680022CB
:10184000EEB200280DDAE1688B050AD4C043A0602F
:1018500041F490302260E0606068411C6160067075
:10186000A5E0E0689046226040F40050E060206906
:1018700068BB60690CF0F4FA012704F12405A0B1FB
:10188000A08910F4407F08D0E069FEF74CFD20618C
:1018900018B1E06840F4006016E0E7612561E06897
:1018A00020F4407040F480600EE0E069FEF73BFDFC
:1018B00000282061F1D0E06840F4006010F4407F1F
:1018C000E06002D140F48070E06020696060E06810
:1018D00025696FF0010AC1051FD56168E06A884279
:1018E00000D80846411B04D02246284600F0E6F9FD
:1018F000F0BBE068010203D5E562C4E9015854E099
:10190000691CE1626160E16940F48030491EC4E90C
:10191000021030462E70BDE8F087010202D500F4B7
:1019200080320AE06068411C61600670E0680A2E3F
:1019300040F48030E06006D00022E16A60688142B5
:1019400003D90B4602E00122F7E70346A7895B1B98
:101950007F0503D4E7699F4200DDE2B1814200D8F0
:101960000146E5620F1AC4E90158002B09DD00E0C9
:1019700005E022461946284600F0A0F908B148467D
:10198000C9E747B1A069E5626560C01BA061E06876
:1019900040F01000E060E068000208D56168A069CE
:1019A000E562491B08446560A0615046B3E73046D4
:1019B000B1E770B5C468A50713D0650211D4B2F5BC
:1019C000807F09D0B2F5007F06D0B2F5806F08D1D4
:1019D000012300F1240106E05D1E6FF07F46B54251
:1019E00001D3012070BD0161C361416024F47061C5
:1019F0001143C160002070BD2DE9F0410C46164630
:101A0000070047D0104600F06FF82078611C61286D
:101A10000AD0722802D077283CD102E001250024A8
:101A200005E00225042402E0082448F2020511F82A
:101A3000010B2B2806D0622809D011F8010C74285C
:101A40000AD00BE045F0030544F00204EFE745F04F
:101A5000040544F00104EAE744F010043846214646
:101A60000CF020FA411C15D00021316171604FF457
:101A70000071F560F1617061200704D530460222E3
:101A8000002100F095F8306D40F0010030653046DF
:101A9000BDE8F0810020FBE72DE9F0410D46064648
:101AA000104C206DC10704D0410804D020F001047F
:101AB000F7E722460EE05420FEF735FC07000ED073
:101AC000206D47F001010843542120653846FFF797
:101AD0007AFD3A4629463046BDE8F0418CE70020C1
:101AE000D6E70000100000202DE9F04704464FF033
:101AF00000094FF0FF37C568D4E90486A80707D06E
:101B0000204600F005F930460CF062F9002802DAB0
:101B10003846BDE8F087280502D54046FEF732FC7E
:101B20004C212046FFF74FFD206D20F0010020657D
:101B30004846EEE710B50446AFF300802046BDE806
:101B40001040FEF7C8BB002801D00CF063B9704705
:101B500010B500F03BF9BDE81040FFF7F4BF0000FE
:101B600010B5012805D0002103A000F015F90120CF
:101B700010BD09A1F8E7000053494752544D454DA7
:101B80003A204F7574206F662068656170206D651E
:101B90006D6F7279000000003A2048656170206D19
:101BA000656D6F727920636F727275707465640011
:101BB0002DE9F041044616460D464769007B800733
:101BC0002ED038460CF04CF950BB3EB3012E02D05B
:101BD000022E25D104E0204600F012F905441DE054
:101BE00038460CF01BF9E168002841F01001E16073
:101BF00005DA204600F058F80120BDE8F081C9035D
:101C00000BD56268E16A914200D81146A26911447D
:101C10002269891A814200DD08460544002D01DA57
:101C20000220EAE7E16A6068E268814206D2910335
:101C3000E06203D522F4003141F01002A6690027CA
:101C4000AE4213DCE16A814201D90B4600E0034653
:101C500003EB060C2369ACEB030CAC4506DD8142BB
:101C600001D98C4600E084469C4505D1A7602760D9
:101C700042F02000A5620DE0AD1BE669AE1B81427B
:101C8000A66000D90846C01A281A2060581960605A
:101C900022F0200003490840E060002084F84870EA
:101CA000ABE70000BFCFD7FFC16821F4001141F0BE
:101CB0008001C16000218160016070472DE9F0471B
:101CC000814614460E464FF0FF383248D5685769B2
:101CD000054209D03846A1690CF026F9002811DB2D
:101CE0002C48C0430540E5602B46324649463846FD
:101CF0000CF040F9A16920F00042B21A114400280A
:101D0000A16103D02046FFF7CFFF4046BDE8F08732
:101D100070B504460569C06A6168884200D8084603
:101D2000E16821F42011E160C90312D5A84208D06E
:101D30002246411B2846FFF7C1FF10B14FF0FF308C
:101D400070BD0020E562C4E90150E06820F48030F5
:101D5000E060002070BD10B50446C06820F020008F
:101D6000E060A16AA06988420DD02046FFF7D0FF4D
:101D7000E06820F4405040F01000E060A06AA061EC
:101D80002069E062606044F24001E0688843E060FE
:101D900010BD00001000020070B505460C460A2078
:101DA00000E06D1C0CF030F935B128780028F8D12E
:101DB00002E0641C0CF028F914B120780028F8D156
:101DC000BDE870400A200CF01FB9000010B50146B4
:101DD00002A0FFF7E1FF012010BD00005349475268
:101DE000545245443A2052656469726563743A20DE
:101DF00063616E2774206F70656E3A2000000000EA
:101E000010B50146C268900703D0900607D5886ACE
:101E10000AE0FEF781FE01210160881E10BD8B697A
:101E2000486818440B69C01A91F848301BB191F802
:101E30004910401A10BD1103FCD50028FADD401EE0
:101E400010BD032A40F2308010F0030C00F0158022
:101E500011F8013BBCF1020F624498BF11F801CBAD
:101E600000F8013B38BF11F8013BA2F1040298BF12
:101E700000F801CB38BF00F8013B11F003033EF43A
:101E800015AE083AC0F0088051F8043B083A51F802
:101E900004CBA0E80810F5E7121D5CBF51F8043B25
:101EA00040F8043BAFF30080D20724BF11F8013B98
:101EB00011F801CB48BF11F8012B24BF00F8013BFA
:101EC00000F801CB48BF00F8012B704753EA020C21
:101ED00000F069802DE9F04B4FF00006002B1FBF8A
:101EE000B3FA83F503FA05F424FA05F65E4012BF4F
:101EF0001643B2FA82F502FA05F4C5F120051EBFB9
:101F000022FA05FC44EA0C04203556EA044C4FEA58
:101F1000144418BF641C4FF000084FF000099042B1
:101F200071EB030C39D3002919BFB1FA81F701FA1B
:101F300007F6B0FA80F700FA07F6C7F120071EBFD0
:101F400020FA07FC46EA0C062037B6FBF4FCA7EBA8
:101F50000507103F07F01F0BCBF120062CFA06F601
:101F60000CFA0BFB44BFB3460026202FA4BF5E46ED
:101F70004FF0000B5BEA060C08BF4FF0010B19EBAA
:101F80000B0948EB0608ABFB027C06FB02CC0BFB03
:101F900003CCC01B71EB0C01C1E70B460246414666
:101FA0004846BDE8F08B13B5084318BF4FF0FF302B
:101FB0000146AFF30080BDE81C40704702F0FF030C
:101FC00043EA032242EA0242FFF7FFBA80B582B039
:101FD00001900198806B00900098006C10F0500FF9
:101FE0003AD1FFE70098016C41F400710164009858
:101FF0000068806810F0405F2AD1FFE70098007EFB
:1020000030BBFFE700980068C06A10F4700F07D07B
:10201000FFE70098006880684005002818D4FFE7B3
:1020200000980068416821F0200141600098016C2F
:1020300021F4807101640098006CC004002806D46B
:10204000FFE70098016C41F001010164FFE7FFE741
:10205000009800F083FB10E00098006CC006002898
:1020600004D5FFE7009800F081FB05E00098806B45
:10207000C16C01988847FFE7FFE702B080BD000010
:1020800080B582B001900198806B0090009840214B
:1020900001640098416C41F004014164009800F033
:1020A00065FB02B080BD000080B582B00190019850
:1020B000806B0090009800F055FB02B080BD0000DE
:1020C00082B0019042F20030C4F20100009000980A
:1020D000416821F4403141600198406800994A68A4
:1020E0001043486001980068416821F480714160A4
:1020F0000198016800694A6842EA00204860019836
:102100000068416821F04071416001980168806871
:102110004A681043486001980068816821F40061B2
:10212000816001980168C0688A68104388600198DE
:10213000806A0121C0F60071884219D0FFE701983A
:102140000068816821F07061816001980168806A8F
:102150008A681043886001980068816821F04051C6
:10216000816001980168C06A8A68104388600CE049
:1021700001980068816821F07061816001980068B1
:10218000816821F040518160FFE701980068816813
:1021900021F0020181600198017E0068826842EAB4
:1021A00041018160019890F82000C8B1FFE70198D3
:1021B0000068416841F4006141600198006841682D
:1021C00021F46041416001980168406A4EF20002CA
:1021D000CFF6FF7202EB40304A681043486006E0D9
:1021E00001980068416821F400614160FFE70198AF
:1021F0000068C16A21F47001C16201980168C06978
:102200000022CFF6F07202EB0050CA6A1043C86297
:1022100001980068816821F400718160019890F84C
:1022200030100068826842EA4121816001980068AC
:10223000816821F4806181600198016840698A6841
:1022400042EA8020886002B070470000FFE7FEE7A6
:1022500080B541F26030C2F2000000F057FD80BD51
:1022600080B541F28040C2F2000000F04FFD80BD19
:1022700080B540F2C070C2F2000000F047FD80BDA2
:1022800080B541F2E040C2F2000000F03FFD80BDA9
:1022900080B540F60010C2F2000000F037FD80BDAE
:1022A00080B541F2C030C2F2000000F02FFD80BDC9
:1022B00080B541F22040C2F2000000F027FD80BD51
:1022C00080B540F62000C2F2000000F01FFD80BD86
:1022D00082B001900198007810384AF6AB21CAF616
:1022E000AA21A0FB010108090090009844F2735153
:1022F000C0F60101085C0199C8650098042807D35D
:10230000FFE701980168042262F30901816506E094
:102310000198016840F2FF3291438165FFE701981F
:10232000806D02B07047000083B0029000208DF8ED
:1023300007000298806A00900298806900BBFFE75E
:10234000009803281AD8DFE800F0020D021802985E
:1023500090F82F00C00720B1FFE701208DF807009B
:10236000FFE70CE00298C06AB0F1C07F04D1FFE73C
:1023700001208DF80700FFE701E000E0FFE741E002
:1023800002988069B0F5005F23D1FFE70098032829
:102390001DD8DFE800F00206021101208DF80700C9
:1023A00016E0029890F82F00C00720B1FFE7012047
:1023B0008DF80700FFE70BE00298C06AB0F1C07F1C
:1023C00004D1FFE701208DF80700FFE700E0FFE7F9
:1023D00017E00098032803D3FFE7032804D00EE09A
:1023E00001208DF807000BE0029890F82F00C0073D
:1023F00020B1FFE701208DF80700FFE700E0FFE7CD
:10240000FFE7FFE79DF8070003B0704784B0039033
:1024100002910192009303980068016821F48021E1
:102420000160009803990968486003988068402813
:1024300009D1FFE701980399096888600298039918
:102440000968C86008E002980399096888600198E3
:1024500003990968C860FFE704B0704782B0019033
:1024600000200090FFE700980F280CD8FFE70198A4
:10247000009900EB81000021C0F88414FFE7009868
:1024800001300090EFE700200090FFE70098002166
:10249000B1EB502F0BD1FFE70198009908440021C0
:1024A00080F81C12FFE7009801300090EEE70198D9
:1024B00000210170019841700198012282700198F9
:1024C000C0F8C414019802760198402383710198E2
:1024D0004176019880F81C14019880F81D24019819
:1024E00080F81F14019880F81E1402B07047000095
:1024F0007047000080B543F61440C4F20100006844
:10250000C00400280FD5FFE743F61440C4F20100D1
:102510004FF48051016040F26060C2F20000006838
:102520000CF0AEFFFFE780BD81B0EFF3108072B614
:102530000090FFE7FEE7000085B040F2BC61C2F208
:1025400000010391029000200190FFE7039890F8AA
:102550003C00012804D1FFE702208DF81300F9E0C8
:102560000398012180F83C10FFE7FFE7029800681C
:102570000A281CD3FFE70298008800EB40001E38B1
:10258000072101FA00F003990968CA6822EA0000ED
:10259000C86002988168008800EB40001E3801FA8C
:1025A00000F003990968CA681043C86019E00298EE
:1025B000008800EB4000072101FA00F00399096848
:1025C0000A6922EA0000086102988168008800EB2D
:1025D000400001FA00F0039909680A691043086194
:1025E000FFE70298406806281CD8FFE70298406879
:1025F00000EB800005381F2101FA00F003990968FB
:102600004A6B22EA0000486302980188406800EBA8
:102610008000053801FA00F0039909684A6B1043FD
:1026200048633DE0029840680C281CD8FFE70298F8
:10263000406800EB800023381F2101FA00F0039965
:1026400009680A6B22EA0000086302980188406862
:1026500000EB8000233801FA00F0039909680A6B47
:10266000104308631BE00298406800EB800041388B
:102670001F2101FA00F003990968CA6A22EA0000E2
:10268000C86202980188406800EB8000413801FA76
:1026900000F003990968CA6A1043C862FFE7FFE7C0
:1026A00042F20030C4F2010000900398006842F248
:1026B0000001C4F2010188420BD1FFE702980068D3
:1026C000122806D1FFE70098416841F4800141607B
:1026D000FFE70398006842F20001C4F2010188425A
:1026E0002ED1FFE702980068102805D0FFE7029876
:1026F0000068112824D1FFE70098416841F40001E7
:10270000416002980068102819D1FFE74CF20000E0
:10271000C2F2010000684DF68361C4F21B31A0FBD8
:102720000101880C00EB800040000190FFE7019858
:1027300020B1FFE7019801380190F8E7FFE7FFE7D4
:10274000FFE70398002180F83C10FFE700208DF898
:102750001300FFE79DF8130005B0704781B00090AB
:1027600001B0704781B0009001B0704781B0009017
:1027700001B0704780B584B040F2BC60C2F2000086
:10278000029000208DF80700029820B9FFE7012091
:102790008DF80F0042E00298806A0121C0F60071B6
:1027A000884201D0FFE7FFE70298006C50B9FFE7CD
:1027B000029800F037F8029800214164029880F8EE
:1027C0003C10FFE70298006CC006002817D4FFE712
:1027D0000298006C40F0020020F4885002990864CE
:1027E0000298FFF76DFC0298002141640298006C8A
:1027F00040F0010020F002000299086403E001208B
:102800008DF80700FFE7FFE70298002180F83C10F1
:10281000FFE79DF807008DF80F00FFE79DF80F0018
:1028200004B080BD10B588B00790002006900590D8
:102830000490039002900798006842F20001C4F2ED
:10284000010188425AD1FFE7FFE70020019043F6DB
:102850004400C4F20200016841F480710160006824
:1028600000F4807001900198FFE7FFE700200090DE
:1028700043F63000C4F20200016841F00201016039
:10288000006800F0020000900098FFE7012002902D
:10289000032003900024049440F20040C4F202009C
:1028A00002A900F0FDFC40F20470C2F2000046F202
:1028B0001041C4F20201016044608460C4604FF4BE
:1028C000806101614FF4006141614FF40051816109
:1028D0004FF48071C1610462446200F0ADFB10B13D
:1028E000FFE7FFF721FEFFE7079840F20471C2F20D
:1028F0000001816307988863FFE7FFE708B010BD18
:1029000080B586B040F2BC60C2F20000049047F689
:102910001400C2F2010003900220029000200190F6
:10292000FFE7049890F83C00012804D1FFE702205B
:102930008DF817000BE10498012180F83C10FFE7A7
:10294000FFE7049800688068C007F0B9FFE70498C3
:102950000068816841F0010181604CF20000C2F220
:10296000010000684DF68361C4F21B31A0FB010138
:10297000880C00EB40000190FFE7019820B1FFE7D1
:10298000019801380190F8E7FFE704980068806833
:10299000C005002807D5FFE704980068816821F486
:1029A00080718160FFE7049800688068C007002894
:1029B00000F0BE80FFE70498006C40F4807040F2A5
:1029C00001618843049908640498006840684005E0
:1029D000002809D5FFE70498006C40F4805020F4EB
:1029E000005004990864FFE70498006CC0040028B4
:1029F00006D5FFE70498416C21F00601416403E02D
:102A0000049800214164FFE7FFE70498002180F863
:102A10003C10FFE742F20030C4F20100009004983D
:102A2000806B41F6CD71C0F60001C1630498806BE4
:102A300042F2A901C0F6000101640498806B42F2E1
:102A40008101C0F60001C164049800686FF02201A2
:102A5000016004980068416841F080614160049819
:102A60000068816841F48071816004980168806B1E
:102A70004C31039A029B00F097FB00984068C00617
:102A8000E8BBFFE70498006842F20001C4F20101CC
:102A9000884224D0FFE70498006842F20011C4F293
:102AA0000101884208D1FFE742F20430C4F201007C
:102AB0000068C00698B1FFE70498006842F2002160
:102AC000C4F20101884219D1FFE742F20430C4F296
:102AD0000100006800F01F000F280FD8FFE70498DE
:102AE0000068806810F0405F07D1FFE70498006835
:102AF000816841F080418160FFE7FFE717E00498BB
:102B0000006842F20001C4F2010188420ED1FFE7E1
:102B100004980068806810F0405F07D1FFE70498D0
:102B20000068816841F080418160FFE7FFE70AE0CB
:102B30000498016C41F0100101640498416C41F06B
:102B400001014164FFE700208DF81700FFE706B0A0
:102B500080BD000080B582B040F26470C2F2000017
:102B60000090009820B9FFE701208DF8070011E0E0
:102B70000098407938B9FFE700980021017100986A
:102B800000F00CF8FFE700980121417100208DF85A
:102B90000700FFE79DF8070002B080BD82B00190FA
:102BA0000198006843F20001C4F20201884212D188
:102BB000FFE7FFE70020009043F63000C4F2020078
:102BC000016841F480510160006800F48050009079
:102BD0000098FFE7FFE702B07047000080B584B0BF
:102BE00002900298806D019000F05AFD00900298CA
:102BF00090F8350002280DD0FFE70298802141654A
:102C0000FFE70298002180F83410FFE701208DF8DB
:102C10000F0056E002980068016821F0160101607B
:102C200002980068416921F0800141610298006CBE
:102C300020B9FFE70298806C38B1FFE7029800687E
:102C4000016821F008010160FFE70298006801684F
:102C500021F001010160FFE7029800680068C007E9
:102C6000C8B1FFE700F01CFD0099401A062811D3F7
:102C7000FFE70298202141650298032180F8351072
:102C8000FFE70298002180F83410FFE703208DF859
:102C90000F0016E0E0E70298C06D3F2101FA00F056
:102CA000019988600298012180F83510FFE70298A9
:102CB000002180F83410FFE7FFE700208DF80F00B7
:102CC000FFE704B080BD000082B00090009890F84B
:102CD0003500022807D0FFE70098802141650120D8
:102CE0008DF807000EE00098052180F83510009857
:102CF0000068016821F001010160FFE700208DF804
:102D00000700FFE79DF8070002B0704780B586B066
:102D10000590002003904CF20000C2F20100006810
:102D200048F2B511C1F64E31A0FB0101880A0290AC
:102D30000598806D019001980068049004980599A9
:102D4000C96DC840000700281BD5FFE7059800683B
:102D500000684007002813D5FFE705980068016860
:102D600021F0040101600598C06D082101FA00F00E
:102D7000019988600598416D41F001014165FFE7C7
:102D8000FFE704980599C96DC840C007A8B1FFE7DF
:102D9000059800684069000600280DD5FFE70598F2
:102DA000C06D012101FA00F0019988600598416D1C
:102DB00041F002014165FFE7FFE704980599C96DFD
:102DC000C8404007002815D5FFE70598006800684F
:102DD000800700280DD5FFE70598C06D042101FA92
:102DE00000F0019988600598416D41F0040141654A
:102DF000FFE7FFE704980599C96DC840C0060028A1
:102E000048D5FFE70598006800680007002840D50E
:102E1000FFE70598C06D102101FA00F00199886064
:102E2000059800680068400300281AD5FFE7059858
:102E3000006800680003002809D4FFE70598006CCB
:102E400020B1FFE70598016C8847FFE708E0059887
:102E5000806C20B1FFE70598816C8847FFE7FFE7AA
:102E600016E0059800680068C005002807D4FFE751
:102E700005980068016821F008010160FFE70598E6
:102E8000006C20B1FFE70598016C8847FFE7FFE77A
:102E9000FFE7FFE704980599C96DC8408006002840
:102EA00040F18F80FFE7059800680068C0060028A1
:102EB00040F18680FFE70598C06D202101FA00F0FF
:102EC00001998860059890F83500052835D1FFE70D
:102ED00005980068016821F01601016005980068F6
:102EE000416921F0800141610598006C20B9FFE73C
:102EF0000598806C38B1FFE705980068016821F0FB
:102F000008010160FFE70598C06D3F2101FA00F05C
:102F1000019988600598012180F83510FFE7059830
:102F2000002180F83410FFE70598006D20B1FFE71D
:102F30000598016D8847FFE77CE005980068006808
:102F4000400300281AD5FFE70598006800680003D1
:102F5000002809D4FFE70598406C20B1FFE70598E9
:102F6000416C8847FFE708E00598C06B20B1FFE798
:102F70000598C16B8847FFE7FFE720E005980068E8
:102F80000068C005002811D4FFE7059800680168B3
:102F900021F0100101600598012180F83510FFE74C
:102FA0000598002180F83410FFE7FFE70598C06B13
:102FB00020B1FFE70598C16B8847FFE7FFE7FFE710
:102FC000FFE70598406DA8B3FFE70598406DC0077F
:102FD00038B3FFE70598052180F83510059800689B
:102FE000016821F001010160FFE7039801300390BF
:102FF0000299884201D9FFE708E0FFE705980068D9
:103000000068C0070028F0D1FFE7FFE7059801211D
:1030100080F83510FFE70598002180F83410FFE7AD
:10302000FFE70598C06C20B1FFE70598C16C8847A1
:10303000FFE7FFE706B080BD80B586B004900020B2
:10304000039000F02DFB0290049820B9FFE70120C7
:103050008DF81700A3E00498406A08B1FFE7FFE786
:103060000498022180F83510FFE70498002180F8C9
:103070003410FFE704980068016821F00101016045
:10308000FFE7049800680068C00790B1FFE700F010
:1030900007FB0299401A06280AD3FFE7049820216B
:1030A00041650498032180F835108DF8171076E0FB
:1030B000E7E70498006800680390039848F23F012E
:1030C000CFF21001084003900498D0F804C0826841
:1030D000C368016942EA0C021A4311434269114371
:1030E00082691143C2691143006A08430399084386
:1030F00003900498406A042808D1FFE70498C16A45
:10310000006B0843039908430390FFE70398049971
:10311000096808600498006840690390039820F0EB
:10312000070003900498406A0399084303900498A9
:10313000406A04281AD1FFE70498806A039908437B
:1031400003900498C06A80B1FFE70498FFF7ECF899
:1031500050B1FFE70498402141650498012180F8AF
:1031600035108DF817101AE0FFE7FFE70398049970
:10317000096848610498FFF7ABF801900498C06DA6
:103180003F2101FA00F0019988600498002141650F
:103190000498012280F835208DF81710FFE79DF87C
:1031A000170006B080BD000080B588B0069005917C
:1031B0000492039300208DF80B000698806D019017
:1031C000FFE7069890F83400012804D1FFE70220B9
:1031D0008DF81F0046E00698012180F83410FFE7C3
:1031E000FFE7069890F8350001282CD1FFE70698F4
:1031F000022180F83510069800214165069805994E
:10320000049A039BFFF702F90698C06D3F2101FA6B
:1032100000F00199886006980068016841F0160185
:1032200001600698006C38B1FFE7069800680168F5
:1032300041F008010160FFE706980068016841F06D
:103240000101016009E0FFE70698002180F83410D1
:10325000FFE702208DF80B00FFE79DF80B008DF8CB
:103260001F00FFE708B080BD80B584B0039000F078
:1032700017FA0290039801900198013020B1FFE7FE
:10328000019801300190FFE7FFE700F009FA029989
:10329000401A0199884201D2FFE7F6E704B080BDE9
:1032A00087B0069005910020039002900190049051
:1032B000FFE704980F2800F2BC81FFE70498012182
:1032C00001FA00F003900598006803990840029005
:1032D00002980399884240F0A781FFE7059840686B
:1032E00000F00300012807D0FFE70598406800F0D0
:1032F000030002282FD1FFE7069880680190049808
:103300004000032101FA00F0019921EA0000019038
:103310000598C068049949008840019908430190C4
:1033200001980699886006984068019004980121E8
:1033300001FA00F0019921EA000001900598406827
:10334000C0F3001004998840019908430190019846
:1033500006994860FFE70598406800F003000328DD
:1033600018D0FFE70698C068019004984000032138
:1033700001FA00F0019921EA0000019005988068A7
:1033800004994900884001990843019001980699E1
:10339000C860FFE70598406800F00300022826D1C6
:1033A000FFE7069804996FF0030202EA510108440E
:1033B000006A0190049800F0070080000F2101FAD4
:1033C00000F0019921EA0000019005980069049934
:1033D00001F0070189008840019908430190019894
:1033E0000699049B02EA530211440862FFE706981B
:1033F0000068019004984000032101FA00F001994F
:1034000021EA000001900598406800F0030004994B
:103410004900884001990843019001980699086085
:10342000059880798007002800F0FD80FFE7FFE71E
:103430000020009043F64400C4F20200016841F409
:1034400080410160006800F4804000900098FFE730
:10345000049820F0030043F60801C4F2010140582B
:103460000190049800F0030080000F2101FA00F0A1
:10347000019921EA0000019006980021C4F202019E
:10348000884202D1FFE700204BE0069840F200415D
:10349000C4F20201884202D1FFE7012040E0069811
:1034A00040F60001C4F20201884202D1FFE7022087
:1034B00035E0069840F60041C4F20201884202D18C
:1034C000FFE703202AE0069841F20001C4F202015E
:1034D000884202D1FFE704201FE0069841F2004134
:1034E000C4F20201884202D1FFE7052014E00698E9
:1034F00041F60001C4F20201884202D1FFE7062032
:1035000009E0069941F60042C4F202020820914205
:1035100008BF0720FFE7FFE7FFE7FFE7FFE7FFE759
:10352000FFE7C0B2049901F00301890088400199C6
:10353000084301900198049921F0030143F6080221
:10354000C4F20102885043F60840C4F2010000684A
:1035500001900298019921EA000001900598807974
:10356000C006002805D5FFE702980199084301909D
:10357000FFE7019843F60841C4F20101086043F6F1
:103580000C40C4F20100006801900298019921EA00
:1035900000000190059880798006002805D5FFE796
:1035A0000298019908430190FFE7019843F60C4106
:1035B000C4F20101086043F60440C4F2010000684F
:1035C00001900298019921EA000001900598807904
:1035D0008007002805D5FFE702980199084301906C
:1035E000FFE7019843F60441C4F20101086043F685
:1035F0000040C4F20100006801900298019921EA9C
:103600000000019005988079C00728B1FFE7029873
:10361000019908430190FFE7019843F60041C4F285
:1036200001010860FFE7FFE7FFE70498013004901D
:103630003FE607B07047000082B040F60040C4F299
:10364000020001900820ADF8020001980069BDF861
:103650000210084204D0FFE701208DF8010003E0CA
:1036600000208DF80100FFE79DF8010002B07047CF
:1036700082B00190ADF802108DF801209DF8010094
:1036800028B1FFE7BDF802000199886105E0BDF8A7
:103690000200000401998861FFE702B07047000052
:1036A00041F2F850C2F200000068704780B582B065
:1036B00001900198D0F8000308F0FAFA02B080BD3A
:1036C00080B582B001900198D0F8000308F00CFB9F
:1036D00002B080BD80B582B04CF68070C2F20000AE
:1036E00001900198006809F0A5FC02B080BD0000BF
:1036F00080B582B001900198006809F0A5FC02B085
:1037000080BD000082B001908DF8031001989DF8F3
:1037100003102C2211FB020090F8600002B07047E9
:1037200082B001908DF8031001989DF803102C22AF
:1037300011FB0200006D02B07047000080B584B03C
:1037400002908DF8071000208DF80600FFE7029820
:1037500090F8F802012804D1FFE702208DF80F004D
:1037600016E00298012180F8F812FFE7FFE70298BF
:1037700000689DF8071009F07FFCFFE70298002120
:1037800080F8F812FFE79DF806008DF80F00FFE7BC
:103790009DF80F0004B080BD10B588B0DDF830C0D2
:1037A000DDF82CE00A9C06908DF817108DF8162095
:1037B0008DF815308DF814408DF813E0ADF810C079
:1037C000FFE7069890F8F802012804D1FFE70220ED
:1037D0008DF81F0081E00698012180F8F812FFE7BC
:1037E000FFE706989DF817102C2211FB020000211C
:1037F00080F83D109DF8150006999DF8173013FBD1
:10380000021181F83800BDF8100006999DF81730B4
:1038100013FB0211A1F840009DF81700069910FB58
:10382000021181F839009DF8130006999DF81730B0
:1038300013FB021181F83F009DF8160000F07F0095
:1038400006999DF8173013FB021181F83A009DF894
:103850001600000600280AD5FFE706989DF8171005
:103860002C2211FB0200012180F83B1009E0069890
:103870009DF817102C2211FB0200002180F83B104C
:10388000FFE79DF8140006999DF817202C2312FBE2
:10389000031181F83C00069800689DF817109DF808
:1038A00016209DF815309DF814C09DF813E0BDF862
:1038B00010400294CDF804E0CDF800C009F0ACFC53
:1038C0008DF80F00FFE70698002180F8F812FFE757
:1038D0009DF80F008DF81F00FFE79DF81F0008B04E
:1038E00010BD000080B582B001908DF803108DF8F6
:1038F00002200198D0F8000308F0B8FA02B080BDA9
:1039000010B584B0DDF824C0DDF820E0079C069CEB
:1039100003908DF80B108DF80A208DF809308DF882
:103920000840ADF806E08DF805C09DF80A0003993F
:103930009DF80B202C2312FB031181F83B009DF80E
:10394000090003999DF80B2012FB031181F83F0039
:103950009DF8080098B9FFE703989DF80B102C22FA
:1039600011FB0200032180F842109DF80500039925
:103970009DF80B3013FB021181F83D0009E003981C
:103980009DF80B102C2211FB0200022180F842103E
:10399000FFE79DF80900032800F2CB80DFE800F084
:1039A00002BF397C9DF80800012831D1FFE79DF85E
:1039B0000A0068BBFFE7BDF8060050B9FFE70398AF
:1039C0009DF80B102C2211FB0200012180F85510EC
:1039D000FFE703989DF80B102C2211FB020090F8D2
:1039E000550050B9FFE703989DF80B102C2211FBEE
:1039F0000200002180F8421009E003989DF80B10A6
:103A00002C2211FB0200022180F84210FFE7FFE7A1
:103A100090E09DF80A00F8B9FFE703989DF80B10B5
:103A20002C2211FB020090F8550050B9FFE70398D3
:103A30009DF80B102C2211FB0200002180F842108F
:103A400009E003989DF80B102C2211FB02000221C3
:103A500080F84210FFE71EE003989DF80B102C221F
:103A600011FB020090F8540050B9FFE703989DF84D
:103A70000B102C2211FB0200002180F8421009E0FB
:103A800003989DF80B102C2211FB0200022180F8F4
:103A90004210FFE7FFE74DE09DF80A00F8B9FFE7A5
:103AA00003989DF80B102C2211FB020090F8550092
:103AB00050B9FFE703989DF80B102C2211FB020070
:103AC000002180F8421009E003989DF80B102C2289
:103AD00011FB0200022180F84210FFE71EE003986C
:103AE0009DF80B102C2211FB020090F8540050B9E5
:103AF000FFE703989DF80B102C2211FB0200002118
:103B000080F8421009E003989DF80B102C2211FB5D
:103B10000200022180F84210FFE7FFE70AE0039865
:103B20009DF80B102C2211FB0200002180F842109E
:103B300000E0FFE7079803999DF80B202C2312FB68
:103B400003114864BDF8060003999DF80B2012FB91
:103B50000311C86403989DF80B1011FB03000021AA
:103B600080F8601003989DF80B2012FB030001659C
:103B70009DF80B00039A10FB032282F8390003988A
:103B80009DF80B2012FB030080F86110039A106867
:103B90009DF80B1011FB03213831127C09F054FC05
:103BA00004B010BD80B586B04CF68070C2F2000043
:103BB00005900598006804900498039005980068A3
:103BC00009F052FA012840F0DA80FFE70598006812
:103BD00009F070FE08B9FFE7D1E00598006809F028
:103BE00069FE8002002806D5FFE7059800684FF4BB
:103BF00000114161FFE70598006809F05BFEC00213
:103C0000002806D5FFE7059800684FF48011416150
:103C1000FFE70598006809F04DFE4001002806D531
:103C2000FFE7059800684FF080614161FFE7059864
:103C3000006809F03FFE8007002805D5FFE70598DA
:103C4000006802214161FFE70598006809F032FE33
:103C5000800000281BD5FFE7059800684FF0005151
:103C600041610398D0F84004C00778B9FFE7049891
:103C700009F09CF9049809F059F9059800680121A8
:103C800009F0E6FD0598FFF71BFDFFE7FFE7059844
:103C9000006809F00FFEC001002804D5FFE7059871
:103CA00003F096FFFFE70598006809F003FE0007A0
:103CB000002808D5FFE7059800F064F9059800682A
:103CC00008214161FFE70598006809F0F3FD00F065
:103CD00010000021B1EB101F10D0FFE7059800681D
:103CE000816921F010018161059803F0E3FF0598D7
:103CF0000068816941F010018161FFE70598006863
:103D000009F0D8FD8001002838D5FFE70598006844
:103D100009F090FB019000200290FFE702980599BE
:103D20008968884224D2FFE70198029901F00F01C7
:103D3000C840C007B8B1FFE70398029900EB4110F3
:103D4000D0F800050004002806D5FFE705989DF887
:103D5000081003F08FF905E005989DF8081003F0AE
:103D60005DFCFFE7FFE7FFE7029801300290D5E72F
:103D7000059800684FF000714161FFE7FFE706B06A
:103D800080BD00002DE9F04F8DB04CF68070C2F27E
:103D900000000B900B9820B9FFE701208DF833004D
:103DA00084E00B9800680A900B9890F8F90240B9EB
:103DB000FFE70B98002180F8F8120B9800F07CF8D0
:103DC000FFE70B98032180F8F9120A98C06BC00531
:103DD000002804D4FFE70B9800210161FFE70B984E
:103DE000006809F02DF8DDF82CC0DCF80000DCF8E4
:103DF0000410DCF80820DCF80C30DCF810E0DCF80B
:103E00001480DCF81890DCF81CA0DCF820B0DCF89A
:103E10002440DCF82850DCF82C60DCF83070DCF84A
:103E200034C0CDF824C00897079606950594CDF8C0
:103E300010B0CDF80CA0CDF80890CDF80480CDF8E6
:103E400000E008F041FF0B98006809F0BFFD0B9FF0
:103E500038687968BA68FB68D7F810C0D7F814E0FA
:103E6000D7F81880D7F81C90D7F820A0D7F824B03E
:103E7000BE6AFD6A3C6B7F6B0997089407950696AE
:103E8000CDF814B0CDF810A0CDF80C90CDF8088086
:103E9000CDF804E0CDF800C009F00AFC0B98012130
:103EA00080F8F91200208DF83300FFE79DF8330009
:103EB0000DB0BDE8F08F000080B588B007900020FD
:103EC00006900590049003900290079800680021E6
:103ED000C4F20401884235D1FFE7FFE700200190DA
:103EE00043F63000C4F20200016841F002010160B3
:103EF000006800F0020001900198FFE74FF4404095
:103F000002900220039000200490032005900C20D2
:103F1000069040F20040C4F2020002A9FFF7C0F987
:103F2000FFE70020009043F63000C4F20200016871
:103F300041F000510160006800F0005000900098CE
:103F4000FFE7FFE708B080BD80B582B0019001981F
:103F5000D0F8000307F0D6FF02B080BD80B582B074
:103F600001900198D0F8000307F0D4FF02B080BDA3
:103F700080B582B001900198006809F003FD02B09D
:103F800080BD000080B582B001900198D0F8000398
:103F900007F02CFF02B080BD80B582B00090FFE733
:103FA000009890F8F802012804D1FFE702208DF86C
:103FB000070017E00098012180F8F812FFE7FFE7FB
:103FC0000098006808F074FF0098006808F0A4FFEB
:103FD000FFE70098002180F8F812FFE700208DF835
:103FE0000700FFE79DF8070002B080BD80B582B0F2
:103FF0000090FFE7009890F8F802012804D1FFE74D
:1040000002208DF8070013E00098012180F8F812D3
:10401000FFE7FFE70098006809F03EFDFFE7009822
:10402000002180F8F812FFE700208DF80700FFE775
:104030009DF8070002B080BD80B584B040F26C707E
:10404000C2F200000290029820B9FFE701208DF82B
:104050000F002AE1029890F83D0040B9FFE702986E
:10406000002180F83C10029800F024F9FFE7029844
:10407000242180F83D1002980068016821F00101B8
:10408000016002980068016841F4004101600298F3
:104090000068016821F40041016000F0FDFB009020
:1040A0000298406848F2A061C0F2010188420AD833
:1040B000FFE7009948F28042C0F21E0200209142C0
:1040C00038BF012009E0009940F60012C0F23D021D
:1040D0000020914238BF0120FFE7012804D1FFE70B
:1040E00001208DF80F00E0E000984DF68361C4F2E6
:1040F0001B31A0FB0101880C019002980068406808
:1041000020F03F000199084302990968486002982D
:104110000068006A20F03F000299496848F2A062F6
:10412000C0F20102914203D8FFE7019901310DE08D
:1041300001994FF49672514344F6D352C1F2620290
:10414000A1FB0212012101EB9211FFE70843029942
:104150000968086202980068C0694CF6FF718843DC
:104160000299496848F2A062C0F2010291421BD84C
:10417000FFE700990139029A52685200B1FBF2F14F
:1041800001316FF31F31032902D8FFE704210AE050
:1041900000990139029A52685200B1FBF2F10131E3
:1041A0006FF31F31FFE742E00299896861B9FFE7C9
:1041B00000990139029A526802EB4202B1FBF2F116
:1041C00001316FF31F310CE000990139029A5268F6
:1041D00019235A43B1FBF2F10131042262F31F317A
:1041E000FFE7090511B9FFE701211FE0029989687E
:1041F00061B9FFE700990139029A526802EB420265
:10420000B1FBF2F101316FF31F310CE0009901397C
:10421000029A526819235A43B1FBF2F10131042288
:1042200062F31F31FFE741F40041FFE7FFE7084376
:1042300002990968C86102980068006820F0C0000F
:1042400002990A68CB69096A194308431060029809
:104250000068806848F2FF31884302990A68CB6899
:10426000096919430843906002980068C06820F00B
:10427000FF0002990A684B69896919430843D060B5
:1042800002980068016841F0010101600298002174
:1042900001640298202280F83D2002980163029870
:1042A00080F83E108DF80F10FFE79DF80F0004B066
:1042B00080BD000080B588B0079000200690059072
:1042C0000490039002900798006845F60001C4F23C
:1042D0000001884240F08980FFE7FFE7002001905D
:1042E00043F63000C4F20200016841F002010160AF
:1042F000006800F0020001900198FFE74FF4406071
:1043000002901220039001200490032005900420C5
:10431000069040F20040C4F2020002A9FEF7C0FF7E
:10432000FFE70020009043F64000C4F2020001685D
:1043300041F480010160006800F480000090009862
:10434000FFE740F2C070C2F2000046F24001C4F242
:10435000020101604FF06061416000218160C16035
:104360004FF48062026141618161C1614FF440326A
:1043700002624162FEF760FE10B1FFE7FEF7D4F87B
:10438000FFE7079840F2C071C2F20001816307980D
:104390008863FFE740F62000C2F2000046F2B80151
:1043A000C4F2020101604FF0606141604021816010
:1043B0000021C1604FF48062026141618161C1618D
:1043C0004FF4403202624162FEF736FE10B1FFE761
:1043D000FEF7AAF8FFE7079840F62001C2F20001B5
:1043E000416307988863FFE7FFE708B080BD0000DE
:1043F00041F2F850C2F200000168013101607047DB
:1044000080B543F60040C4F20200016841F4007137
:104410000160016841F480610160016841F48071CC
:10442000016000F0C7F8002000F004F800F074F814
:1044300080BD000080B58CB00B90002004900390EC
:10444000FFE70020009043F64000C4F2020001683C
:1044500041F480710160006800F480700090009861
:10446000FFE706A802A900F0E7F90998049004986C
:1044700020B9FFE700F010FA059004E000F00CFA14
:1044800040000590FFE705984DF68361C4F21B31AB
:10449000A0FB01014FF0FF3000EB9140039041F28F
:1044A0004450C2F2000042F20001C4F20001016077
:1044B00040F2E731C16003994160002101618160F0
:1044C000816101F05FF88DF807009DF8070000BBDF
:1044D000FFE701F079F98DF807009DF80700B8B9FA
:1044E000FFE72D2000F044F80B980F280BD8FFE7CA
:1044F0000B992D2000F046F80B984CF20401C2F203
:104500000101086003E001208DF80700FFE7FFE7E5
:10451000FFE70CB080BD000080B582B0FFE700204F
:10452000019043F64400C4F20200016841F4804166
:104530000160006800F4804001900198FFE7FFE708
:104540000020009043F64000C4F20200016841F0F0
:1045500080510160006800F0805000900098FFE7F3
:104560006FF001000F2100F00DF802B080BD0000D7
:1045700080B582B08DF807009DF9070009F0A2FB15
:1045800002B080BD10B584B08DF80F0002910020FC
:104590000190009009F0B0FB00909DF90F40009849
:1045A0000299019A04F03EFC0146204609F0ACFB5A
:1045B00004B010BD80B582B003200190019809F0CD
:1045C000E9FB02B080BD000080B584B002900520F8
:1045D0000190029820B9FFE701208DF80F0021E13A
:1045E000019843F60041C4F20201096801F0070195
:1045F000884212D9FFE7019843F60041C4F2020154
:104600000870086800F007000199884204D0FFE7AD
:1046100001208DF80F0005E1FFE702980078800780
:1046200000282AD5FFE7029800784007002809D51E
:10463000FFE743F60800C4F20200016841F4E051CC
:104640000160FFE7029800780007002809D5FFE71E
:1046500043F60800C4F20200016841F460410160C1
:10466000FFE743F60800C4F20200016821F0F00100
:10467000029A926811430160FFE702980078C00730
:1046800000286ED0FFE702984068012811D1FFE7AB
:1046900043F60000C4F20200006800F4003000217C
:1046A000B1EB504F04D1FFE701208DF80F00B9E0C6
:1046B0002CE002984068022805D0FFE70298406885
:1046C000032811D1FFE743F60000C4F2020000689E
:1046D00000F000700021B1EB506F04D1FFE7012022
:1046E0008DF80F009EE010E043F60000C4F20200D7
:1046F000006800F002000021B1EB500F04D1FFE789
:1047000001208DF80F008DE0FFE7FFE743F608007A
:10471000C4F20200016821F00301029A52681143B9
:104720000160FEF7BDFF0090FFE743F60800C4F20A
:104730000200006800F00C0002994968B0EB810F9C
:104740000ED0FFE7FEF7ACFF0099401A41F2893125
:10475000884204D3FFE703208DF80F0062E0E4E70E
:10476000FFE7019843F60041C4F20201096801F035
:104770000701884212D2FFE7019843F60041C4F2D4
:1047800002010870086800F007000199884204D00F
:10479000FFE701208DF80F0044E0FFE70298007862
:1047A000400700280CD5FFE743F60800C4F20200DA
:1047B000016821F4E051029AD26811430160FFE7D9
:1047C00002980078000700280DD5FFE743F608009F
:1047D000C4F20200016821F46041029A126941EAC0
:1047E000C2010160FFE700F07BF843F60801C4F264
:1047F00002010968C9B2090944F25B52C0F601021C
:10480000515CC8404CF20001C2F2010108604CF258
:104810000400C2F201000068FFF70CFE00208DF8D2
:104820000F00FFE79DF80F0004B080BD4C20C4F2DC
:10483000472001210160704782B0019000910198EA
:104840000F21016043F60800C4F20200016801F084
:104850000301019A5160016801F0F001019A916031
:10486000016801F4E051019AD160006800F46040F1
:10487000C0080199086143F60040C4F202000068D4
:1048800000F007000099086002B070474CF2000089
:10489000C2F201000068704780B5FFF7F7FF43F6EA
:1048A0000801C4F202010968C1F3822144F26B528B
:1048B000C0F60102515CC84080BD000080B5FFF722
:1048C000E5FF43F60801C4F20201096889B2490B09
:1048D00044F26B52C0F60102515CC84080BD00003A
:1048E00080B584B00020039002900190009043F6C0
:1048F0000800C4F20200006800F00C0030B1FFE7CD
:10490000042809D0FFE708280CD04FE042F200400D
:10491000C0F2F40000904FE041F20020C0F27A00B3
:10492000009049E043F60400C4F20200016801F07F
:104930003F01039100684002002813D5FFE743F6CA
:104940000400C4F202000068C0F3881041F20021A4
:10495000C0F27A01A0FB0101039A0023FDF7B6FA29
:10496000029012E043F60400C4F202000068C0F3B3
:10497000881042F20041C0F2F401A0FB0101039A49
:104980000023FDF7A3FA0290FFE743F60400C4F208
:104990000200006800F44030022101EBD0300190A9
:1049A00002980199B0FBF1F0009005E042F200405E
:1049B000C0F2F4000090FFE7009804B080BD000052
:1049C00080B543F60C00C4F202000068000600281F
:1049D00009D5FFE7AFF3008043F60E00C4F20200F2
:1049E00080210170FFE780BD80B586B004900498F7
:1049F00020B9FFE701208DF8170050E304980078F4
:104A0000C007002800F0A580FFE743F60800C4F2C5
:104A10000200006800F00C00042813D0FFE743F602
:104A20000800C4F20200006800F00C0008281ED143
:104A3000FFE743F60400C4F20200006840020028C9
:104A400015D5FFE743F60000C4F20200006800F449
:104A500000300021B1EB504F08D0FFE704984068C8
:104A600020B9FFE701208DF8170018E370E0FFE799
:104A700004984068B0F5803F09D1FFE743F6000095
:104A8000C4F20200016841F48031016020E0049822
:104A90004068B0F5A02F0DD1FFE743F60000C4F247
:104AA0000200016841F480210160016841F4803115
:104AB00001600CE043F60000C4F20200016821F43A
:104AC00080310160016821F480210160FFE7FFE788
:104AD000FFE704984068E8B1FFE7FEF7E1FD0390C7
:104AE000FFE743F60000C4F20200006800F4003063
:104AF0000021B1EB504F0CD1FFE7FEF7D1FD039938
:104B0000401A652804D3FFE703208DF81700C6E29A
:104B1000E7E71CE0FEF7C4FD0390FFE743F6000063
:104B2000C4F20200006800F400300021B1EB504FE5
:104B30000CD0FFE7FEF7B4FD0399401A652804D3B3
:104B4000FFE703208DF81700A9E2E7E7FFE7FFE79B
:104B5000FFE7049800788007002840F19680FFE77F
:104B600043F60800C4F20200006810F00C0F13D0E6
:104B7000FFE743F60800C4F20200006800F00C00F2
:104B800008282CD1FFE743F60400C4F202000068B5
:104B90004002002823D4FFE743F60000C4F20200DD
:104BA000006800F002000021B1EB500F09D0FFE7D0
:104BB0000498C068012804D0FFE701208DF8170091
:104BC0006DE243F60000C4F20200016821F0F80132
:104BD000049A126941EAC2010160FFE754E00498B7
:104BE000C06870B3FFE70020C4F2472001210160D4
:104BF000FEF756FD0390FFE743F60000C4F2020003
:104C0000006800F002000021B1EB500F0CD1FFE76B
:104C1000FEF746FD0399401A032804D3FFE703205B
:104C20008DF817003BE2E7E743F60000C4F202000C
:104C3000016821F0F801049A126941EAC201016099
:104C400021E00020C4F2472000210160FEF728FD8A
:104C50000390FFE743F60000C4F20200006800F092
:104C600002000021B1EB500F0CD0FFE7FEF718FD5A
:104C70000399401A032804D3FFE703208DF8170097
:104C80000DE2E7E7FFE7FFE7FFE70498007800079A
:104C900000284BD5FFE70498406918B3FFE740F6BA
:104CA0008060C4F2472001210160FEF7F9FC039007
:104CB000FFE743F67400C4F20200006800F002004F
:104CC0000021B1EB500F0CD1FFE7FEF7E9FC03998F
:104CD000401A032804D3FFE703208DF81700DEE114
:104CE000E7E722E040F68060C4F24720002101603F
:104CF000FEF7D6FC0390FFE743F67400C4F202000F
:104D0000006800F002000021B1EB500F0CD0FFE76B
:104D1000FEF7C6FC0399401A032804D3FFE70320DB
:104D20008DF81700BBE1E7E7FFE7FFE7049800789D
:104D30004007002840F1CE80FFE700208DF80700F3
:104D400043F64000C4F202000068C000002815D4F9
:104D5000FFE7FFE70020009043F64000C4F20200A6
:104D6000016841F080510160006800F080500090BF
:104D70000098FFE701208DF80700FFE747F20000E9
:104D8000C4F200000068C005002822D4FFE747F203
:104D90000000C4F20000016841F480710160FEF778
:104DA0007FFC0390FFE747F20000C4F200000068B8
:104DB000C00500280CD4FFE7FEF772FC0399401AE7
:104DC000032804D3FFE703208DF8170067E1EAE723
:104DD000FFE7FFE704988068012809D1FFE743F661
:104DE0007000C4F20200016841F0010101601FE09F
:104DF0000498806805280DD1FFE743F67000C4F2DF
:104E00000200016841F004010160016841F0010104
:104E100001600CE043F67000C4F20200016821F06A
:104E200001010160016821F004010160FFE7FFE773
:104E3000FFE704988068F8B1FFE7FEF731FC0390C4
:104E4000FFE743F67000C4F20200006800F00200C1
:104E50000021B1EB500F0ED1FFE7FEF721FC0399C3
:104E6000401A41F28931884204D3FFE703208DF8CC
:104E7000170014E1E5E71EE0FEF712FC0390FFE7E0
:104E800043F67000C4F20200006800F00200002146
:104E9000B1EB500F0ED0FFE7FEF702FC0399401A6A
:104EA00041F28931884204D3FFE703208DF81700CF
:104EB000F5E0E5E7FFE79DF80700012809D1FFE7E6
:104EC00043F64000C4F20200016821F08051016005
:104ED000FFE7FFE704988069002800F0DC80FFE727
:104EE00043F60800C4F20200006800F00C00082835
:104EF00000F08580FFE70498806902285CD1FFE715
:104F00006020C4F2472000210160FEF7C9FB039036
:104F1000FFE743F60000C4F20200006800F00070F2
:104F20000021B1EB506F0CD0FFE7FEF7B9FB0399FE
:104F3000401A032804D3FFE703208DF81700AEE0E2
:104F4000E7E70498D0F81CC0026A436A816A42EA23
:104F50000C0242EA8312C9034FF6FF739943A1F58D
:104F600080311143C06A41EA006043F60401C4F293
:104F7000020108606020C4F2472001210160FEF7B1
:104F80008FFB0390FFE743F60000C4F202000068C5
:104F900000F000700021B1EB506F0CD1FFE7FEF77D
:104FA0007FFB0399401A032804D3FFE703208DF801
:104FB000170074E0E7E721E06020C4F247200021F9
:104FC0000160FEF76DFB0390FFE743F60000C4F2BB
:104FD0000200006800F000700021B1EB506F0CD0AF
:104FE000FFE7FEF75DFB0399401A032804D3FFE7B0
:104FF00003208DF8170052E0E7E7FFE74AE0049846
:105000008069012804D1FFE701208DF8170046E0F0
:1050100043F60400C4F2020000680290049880691C
:10502000012831D0FFE7029800F480000499C96993
:10503000884229D1FFE7029800F03F000499096AED
:10504000884221D1FFE7029847F6C07108400499D1
:10505000496AB0EB811F17D1FFE7029800F4403096
:105060000499896AC9034FF6FF729143A1F5803113
:10507000884209D1FFE7029800F070600499C96A7C
:10508000B0EB016F04D0FFE701208DF8170006E0B8
:10509000FFE7FFE7FFE700208DF81700FFE79DF827
:1050A000170006B080BD000081B0009001B07047CD
:1050B00081B0009001B0704780B582B040F68000AA
:1050C000C2F200000090009820B9FFE701208DF89F
:1050D0000700ADE00098406A60B9FFE700984068BB
:1050E000B0F5827F01D1FFE703E000980021C161A4
:1050F000FFE705E000980021016100984161FFE7AA
:10510000009800218162009890F85100002843D156
:10511000FFE70098002180F85010009845F26D31AB
:10512000C0F600018165009845F25D31C0F60001CE
:10513000C165009845F27D31C0F600010166009816
:1051400045F27531C0F600014166009845F26531BF
:10515000C0F600018166009845F28531C0F6000175
:10516000C166009845F2B101C0F6000101670098E0
:1051700045F2A901C0F6000141670098806F38B977
:10518000FFE7009845F23921C0F600018167FFE78B
:105190000098816F8847FFE70098022180F851103E
:1051A00000980068016821F0400101600098D0F883
:1051B00000C042688368C16802F4827203F4044349
:1051C0001A4401F400611144026902F00202114420
:1051D000426902F001021144826902F40072114432
:1051E000C26902F038021144026A02F080021143DF
:1051F000806A00F400500843CCF800000098418B0E
:1052000001F004010268406A00F010000844506098
:1052100000980068C16921F40061C1610098002113
:1052200041650098012280F851208DF80710FFE7B2
:105230009DF8070002B080BD2DE9F0418AB00990C9
:105240000020089007900690059004900998006847
:1052500043F60001C4F2000188427CD1FFE7FFE77A
:105260000020039043F64000C4F20200016841F4BC
:1052700080410160006800F4804003900398FFE7DC
:10528000FFE70020029043F63000C4F202000168FC
:1052900041F004010160006800F0040002900298EF
:1052A000FFE7FFE70020019043F63000C4F2020060
:1052B000016841F002010160006800F00200019005
:1052C0000198FFE7082004904FF00208CDF8148001
:1052D00000250695032707970526089640F6000047
:1052E000C4F2020004AC2146FDF7DAFF4FF400508F
:1052F0000490CDF8148006950797089640F2004078
:10530000C4F202002146FDF7CBFF40F60010C2F2C6
:10531000000046F27001C4F20201016045604021C4
:105320008160C5604FF48061016145618561C5613F
:1053300005624562FDF780FE10B1FFE7FDF7F4F866
:10534000FFE7099840F60011C2F200018164099854
:105350008863FFE7FFE70AB0BDE8F08181B0009005
:1053600001B0704781B0009001B0704781B00090EB
:1053700001B0704781B0009001B0704781B00090DB
:1053800001B0704781B0009001B0704781B00090CB
:1053900001B0704781B0009001B0704781B00090BB
:1053A00001B0704784B040F66011C2F20001029172
:1053B000019000200090FFE7029890F83C0001283F
:1053C00004D1FFE702208DF80F0044E0029801218C
:1053D00080F83C10FFE7FFE7009820F0FF000199FC
:1053E000C96808430090009820F4407001998968CA
:1053F00008430090009820F48060019949680843B0
:105400000090009820F4006001990968084300901A
:10541000009820F480500199096908430090009891
:1054200020F400500199496908430090009820F445
:1054300080400199C9690843009000980299096861
:105440004864FFE70298002180F83C10FFE7002045
:105450008DF80F00FFE79DF80F0004B070470000C3
:1054600085B003900291FFE7039890F83C00012873
:1054700004D1FFE702208DF813007EE0039801219C
:1054800080F83C10FFE7FFE70398022180F83D1009
:105490000398006840680190039800688068009055
:1054A000019820F07000019002980068019908436B
:1054B00001900198039909684860039800680021E9
:1054C000C4F2010188423CD0FFE703980068B0F1C4
:1054D000804F36D0FFE70398006840F20041C4F2E5
:1054E000000188422DD0FFE70398006840F60001D4
:1054F000C4F20001884224D0FFE70398006840F618
:105500000041C4F2000188421BD0FFE70398006805
:1055100040F20041C4F20101884212D0FFE7039833
:10552000006844F20001C4F20101884209D0FFE79B
:105530000398006841F60001C4F2000188420ED1D0
:10554000FFE7009820F080000090029840680099E2
:10555000084300900098039909688860FFE7039862
:10556000012180F83D10FFE70398002180F83C10EE
:10557000FFE700208DF81300FFE79DF8130005B04A
:105580007047000080B582B00090009820B9FFE716
:1055900001208DF807004DE0009890F83D00B0B96B
:1055A000FFE70098002180F83C10009804F098F97B
:1055B0000098806C38B9FFE7009845F23D61C0F66D
:1055C00000018164FFE70098816C8847FFE700983D
:1055D000022180F83D10009951F8040B03F0C6FE3B
:1055E0000098012180F84610FFE70098012180F81B
:1055F0003E10009880F83F10009880F84010009806
:1056000080F84110FFE7FFE70098012180F8421081
:10561000009880F84310009880F84410009880F8B3
:105620004510FFE70098012180F83D1000208DF81B
:105630000700FFE79DF8070002B080BD88B0079023
:10564000079800680021C4F20101884212D1FFE7E7
:10565000FFE70020069043F64400C4F20200016810
:1056600041F001010160006800F001000690069819
:10567000FFE7A7E00798006841F20041C4F200018B
:10568000884212D1FFE7FFE70020059043F6400073
:10569000C4F20200016841F020010160006800F0DE
:1056A000200005900598FFE78BE00798006844F21A
:1056B0000001C4F20101884212D1FFE7FFE7002098
:1056C000049043F64400C4F20200016841F48031C2
:1056D0000160006800F4803004900498FFE76FE0F8
:1056E0000798006844F20041C4F20101884212D1D7
:1056F000FFE7FFE70020039043F64400C4F20200F6
:10570000016841F400310160006800F4003003904A
:105710000398FFE753E00798006844F60001C4F2DD
:105720000101884212D1FFE7FFE70020029043F613
:105730004400C4F20200016841F480210160006865
:1057400000F4802002900298FFE737E00798006895
:1057500041F60001C4F20001884212D1FFE7FFE7E1
:105760000020019043F64000C4F20200016841F0BD
:1057700040010160006800F0400001900198FFE7DF
:105780001BE00798006841F60041C4F2000188421E
:1057900012D1FFE7FFE70020009043F64000C4F27B
:1057A0000200016841F080010160006800F08000A3
:1057B00000900098FFE7FFE7FFE7FFE7FFE7FFE75D
:1057C000FFE7FFE708B0704783B041F24450C2F2F0
:1057D00000000190019890F83D00012804D0FFE7F7
:1057E00001208DF80B006AE00198022180F83D103D
:1057F00001980068C16841F00101C160019800682A
:105800000021C4F2010188423CD0FFE70198006802
:10581000B0F1804F36D0FFE70198006840F20041B8
:10582000C4F2000188422DD0FFE70198006840F6DD
:105830000001C4F20001884224D0FFE7019800680B
:1058400040F60041C4F2000188421BD0FFE70198F6
:10585000006840F20041C4F20101884212D0FFE723
:105860000198006844F20001C4F20101884209D0A5
:10587000FFE70198006841F60001C4F20001884288
:1058800012D1FFE701980068806800F007000090DF
:105890000098062807D0FFE701980068016841F0EA
:1058A00001010160FFE706E001980068016841F02E
:1058B00001010160FFE700208DF80B00FFE79DF874
:1058C0000B0003B07047000080B586B004900391D0
:1058D00000208DF80B00FFE7049890F83C000128A9
:1058E00004D1FFE702208DF81700A1E00498012100
:1058F00080F83C10FFE7FFE70498022180F83D1094
:105900000498006880680190019820F07700019069
:10591000019820F47F4001900198049909688860FB
:1059200003980068002869D0FFE7102866D0FFE7D9
:10593000202863D0FFE7302860D0FFE7402850D010
:10594000FFE7502833D0FFE760283DD0FFE77028FD
:1059500009D0FFE7B0F5805F04D0FFE7B0F5005F46
:1059600016D052E055E004980068039B5A68996885
:10597000DB6803F0C9FD0498006880680190019815
:1059800040F077000190019804990968886040E030
:1059900004980068039B5A689968DB6803F0B4FDBB
:1059A00004980068816841F48041816031E0049886
:1059B0000068039A5168D26803F0F2FF0498006807
:1059C000502103F0BBFD24E004980068039A51685D
:1059D000D26804F00DF804980068602103F0AEFD71
:1059E00017E004980068039A5168D26803F0D8FF62
:1059F00004980068402103F0A1FD0AE004980068C3
:105A00000399096803F09AFD03E001208DF80B006B
:105A1000FFE70498012180F83D10FFE7049800217A
:105A200080F83C10FFE79DF80B008DF81700FFE7AA
:105A30009DF8170006B080BD80B586B00490039134
:105A4000049820B9FFE701208DF8170096E004982C
:105A500090F83D00B0B9FFE70498002180F83C10B1
:105A6000049803F03DFF0498006F38B9FFE70498ED
:105A700045F68531C0F600010167FFE70498016F24
:105A80008847FFE70498022180F83D1004980068D9
:105A9000816844F2070291438160049951F8040B34
:105AA00003F064FC04980068806802900498006821
:105AB0008069019004980068006A0090039800686B
:105AC000029908430290019840F203318843019003
:105AD00003988168806941EA002001990843019098
